:020000040800F2
:1000000070070020D5010008D9460008AD06000899
:10001000D54600086D040008D74C00080000000019
:10002000000000000000000000000000C9480008B7
:100030007104000800000000B1470008DD49000815
:10004000EF010008EF010008EF010008EF010008D0
:10005000EF010008EF010008EF010008EF010008C0
:10006000EF010008EF010008EF010008EF010008B0
:10007000EF010008EF010008EF010008EF010008A0
:10008000EF010008EF010008EF010008EF01000890
:10009000EF010008EF010008EF010008EF01000880
:1000A000EF010008EF010008EF010008EF01000870
:1000B000EF010008414A0008514A0008EF0100081A
:1000C000EF010008EF010008EF010008EF01000850
:1000D000EF010008B54A0008EF010008EF01000831
:1000E000EF010008EF010008EF010008EF01000830
:1000F000EF010008EF010008EF010008EF01000820
:10010000EF010008EF010008EF010008EF0100080F
:10011000EF010008EF010008EF010008EF010008FF
:10012000EF010008EF010008EF010008EF010008EF
:1001300000F002F800F03FF80AA090E8000C8244BA
:100140008344AAF10107DA4501D100F034F8AFF297
:10015000090EBAE80F0013F0010F18BFFB1A43F0A5
:10016000010318474858000068580000103A24BF9F
:1001700078C878C1FAD8520724BF30C830C144BF0C
:1001800004680C607047000000230024002500264E
:10019000103A28BF78C1FBD8520728BF30C148BFEA
:1001A0000B607047782900F07780002070471FB5FA
:1001B0001FBD10B510BD00F027F91146FFF7F7FF7E
:1001C00004F00AFE00F045F903B4FFF7F2FF03BCA8
:1001D00004F083FD0948804709480047FEE7FEE731
:1001E000FEE7FEE7FEE7FEE7FEE7FEE7FEE7FEE7E7
:1001F00004480549054A064B70470000E1490008DC
:1002000031010008700100207007002070030020F9
:1002100070030020704700000FB4044910B503AA12
:10022000029800F0C3F810BC5DF814FB2C0000200D
:100230002DE9F0410E460446002020622046E16888
:10024000884730B3252805D0D4E901219047206A9A
:10025000401CF2E7E168204600278847050018D0D7
:10026000A5F14100192802D820354FF40067324625
:10027000294620462760FFF795FF40B1012804D0AA
:10028000F61D26F007060836D8E7361DD6E72846BD
:10029000DAE7206ABDE8F08170B504460D462146D4
:1002A0001068AFF300802188090502D50F4A7A440F
:1002B00002E00E4A7A440E32002104F1240305E0E4
:1002C00000F00F060009965D5E54491C0028F7D126
:1002D00020780023000704D5702D02D009B1022335
:1002E00011322046BDE8704000F006B8D25600003A
:1002F00070477047704770472DE9F0470D469946A3
:100300009246044600F124080168880604D5E06995
:1003100021F01001216000E00120A84201DD471B0F
:1003200000E00027A1697A1902EB0900081AA06110
:100330002078C00602D42046AFF30080002608E0F3
:10034000D4E901211AF806009047206A401C761C67
:1003500020624E45F4DB2078C0060AD52046AFF374
:10036000008006E0D4E9012130209047206A401C3B
:100370002062381EA7F10107F4DC07E0D4E901216F
:1003800018F805009047206A401C2062281EA5F13D
:100390000105F3DC2046AFF300802078000602D58B
:1003A0000220BDE8F0870120FBE70000074B70B595
:1003B0000D467B4400F011F80446284600F020F872
:1003C00010B14FF0FF3070BD204670BD074A0000ED
:1003D00001694A1C02610878704700B58FB0CDE909
:1003E00001310021059105497944CDE903101146F9
:1003F0006846FFF71DFF0FB000BD0000E5FFFFFFDF
:10040000007B00F080007047754600F02BF8AE4688
:1004100005006946534620F00700854618B020B510
:10042000FFF7E6FEBDE820404FF000064FF0000762
:100430004FF000084FF0000B21F00701AC46ACE88C
:10044000C009ACE8C009ACE8C009ACE8C0098D46F9
:10045000704710B50446AFF300802046BDE8104059
:10046000FFF7B2BE004870471001002000BFFEE752
:100470007047000051B18200A2F1C042126842F000
:1004800001038200A2F1C042136009E08200A2F1E0
:10049000C0421268034B1A408300A3F1C0431A60A4
:1004A00070470000FEFF0F00D0E901121143C2683F
:1004B0001143026911434269114382691143C269C0
:1004C0001143026A1143426A1143826A1143C26AAC
:1004D0001143026B114302689200A2F1C042116005
:1004E000816808290BD101688900A1F1C041096820
:1004F00041F0400201688900A1F1C0410A60416BEE
:100500000968426B526841EA0211426B926841EA03
:100510000221426B928941EA0241426B128A41EA0E
:100520000251426B127D41EA0261426B92691143B2
:100530000268521C9200A2F1C0421160C16AB1F57A
:10054000804F1BD1816B0968826B526841EA0211AE
:10055000826B926841EA0221826B128A41EA02515F
:10056000826B127D41EA0261826B926911430268DB
:100570009200A2F1C042C2F8041107E06FF070428D
:1005800001688900A1F1C041C1F8042170472DE93B
:10059000F041024600250026002000230024002709
:1005A00091F803C00CF00F0591F803C00CF0100C8B
:1005B000BCF1000F03D091F802C04CEA050591F898
:1005C00000C0BCF1000F31D0146800202BE04FF0C8
:1005D000010C0CFA00F3B1F800C00CEA03069E42CD
:1005E00020D183004FF00F0C0CFA03F7BC4305FA3F
:1005F00003FC4CEA040491F803C0BCF1280F06D1B7
:100600004FF0010C0CFA00FCC2F814C00AE091F89B
:1006100003C0BCF1480F05D14FF0010C0CFA00FCEF
:10062000C2F810C0401C0828D1D31460B1F800C033
:10063000BCF1FF0F34DD546800202EE000F1080CFF
:100640004FF0010808FA0CF3B1F800C00CEA0306F9
:100650009E4221D183004FF00F0C0CFA03F7BC43EC
:1006600005FA03FC4CEA040491F803C0BCF1280F1E
:1006700005D100F1080C08FA0CF8C2F8148091F8C2
:1006800003C0BCF1480F07D100F1080C4FF001087E
:1006900008FA0CF8C2F81080401C0828CED3546029
:1006A000BDE8F081416170470161704700BFFEE71E
:1006B00070B504460026174805884088454315480C
:1006C000808846F60401884216D1124880790128B4
:1006D00012D100200F4988712A2048812B2088815F
:1006E0000021084603F00CFE01200A4988712B20E6
:1006F00048812A20888103E00021084603F000FE9B
:1007000003F0D6FF002602E003480480761CAE42C8
:10071000FAD370BD000100200008006C10B504463B
:10072000002C60D166498871F02008804FF4A070D9
:1007300048800846808849F2413188420BD06048A1
:10074000808846F60401884205D05D48808845F2DD
:10075000103188421AD12C20594908812A20488119
:100760002B2088810846808846F60401884205D0FF
:100770005348808845F21031884206D14FF4A0706A
:100780004F4908804FF4F070488095E04C488088CD
:1007900048F68911884207D12220494908814E2014
:1007A00048814F20888187E04548808845F2105174
:1007B000884210D14FF43050414908814FF42850FD
:1007C00048814FF42C5088814FF4F07008804FF42A
:1007D0004870488070E022203949088120204881F3
:1007E0002120888168E00120354988714FF4A0708C
:1007F0000880F02048800846808849F241318842CC
:1008000005D02F48808845F21031884207D12C202E
:100810002B4908812A2048812B20888139E02848EB
:10082000808846F60401884207D12C20244908819B
:100830002B2048812A2088812BE02148808848F697
:100840008911884207D122201D4908814F20488103
:100850004E2088811DE01A48808845F21051884258
:1008600010D14FF43050164908814FF42850488178
:100870004FF42C5088814FF4487008804FF4F0708A
:10088000488006E022200E4908812120488120204E
:1008900088810B48808846F60401884205D00848C4
:1008A000808845F21031884206D14FF4F070044937
:1008B00008804FF4A0704880002003F0BDFB10BDFD
:1008C0000001002030B504460D462946204603F0BD
:1008D00017FD03F0EDFE024800880249088030BD94
:1008E000340000200008006C00B59FB00121080210
:1008F00003F060FF012140F2691003F06BFF01205B
:10090000ADF8780010208DF87B0003208DF87A0078
:100910001EA9FE48FFF73BFE4CF23370ADF878009D
:1009200018208DF87B0003208DF87A001EA9F84866
:10093000FFF72DFE4FF68070ADF8780018208DF887
:100940007B0003208DF87A001EA9F248FFF71FFEF6
:1009500041F20100ADF8780018208DF87B000320EB
:100960008DF87A001EA9EC48FFF711FE01200890CF
:10097000002009900F200A9000200B900C900D9001
:100980000E900190029003200390002004900590A7
:100990000690079006200F900020109011901020D4
:1009A00012900020139015901490169017904FF409
:1009B00080501890002019904FF480401A90002029
:1009C0001B9008A81C9001A81D900FA8FFF76CFDB4
:1009D00001210620FFF74EFD322004F0A3F901218A
:1009E000002003F06FFE322004F09CF9002003F099
:1009F00017FBCA49888008468088FF280ADB08461A
:100A000080884FF6FF71884204D0C4488088B0F5D2
:100A1000134F7CD1D32003F045FE03F0FBFA03F023
:100A2000F9FA03F0F7FABD498880084680884FF646
:100A3000FF7101EA0020B949888003F0EBFAB74959
:100A400089880843B54988800846808849F2413141
:100A500088426CD0BF2003F025FE03F0DBFA03F0E0
:100A6000D9FA03F0D7FA03F0D5FAAC4988800846E2
:100A700080884FF6FF7101EA0020A849888003F0C2
:100A8000C9FAA64989880843A4498880084680880D
:100A900046F6040188424AD0D42003F003FE03F056
:100AA000B9FA03F0B7FA03F0B5FA9C498880084612
:100AB00080884FF6FF7101EA00209849888003F092
:100AC000A9FA96498988084394498880084680880D
:100AD00045F2103188422AD04FF45A4003F0E2FD2B
:100AE00003F098FA4FF45B4003F0DCFD03F092FA58
:100AF0008A498880084680884FF6FF7101EA002005
:100B0000864988804FF45C4003F0CCFD00E00EE0A5
:100B100003F080FA81498988084380498880084623
:100B20008088B0F5004F02D145F2105088807B4894
:100B300081887BA0FFF770FB7848808849F24131BB
:100B400088427CD1CF2003F0ADFD002003F0A4FD4E
:100B5000C12003F0A1FD302003F09EFDED2003F045
:100B6000A1FD642003F098FD032003F095FD122001
:100B700003F092FD812003F08FFDE82003F092FD49
:100B8000852003F089FD102003F086FD7A2003F014
:100B900083FDCB2003F086FD392003F07DFD2C2062
:100BA00003F07AFD002003F077FD342003F074FD9C
:100BB000022003F071FDF72003F074FD202003F004
:100BC0006BFDEA2003F06EFD002003F065FD0020C0
:100BD00003F062FDC02003F065FD1B2003F05CFD07
:100BE000C12003F05FFD012003F056FDC52003F096
:100BF00059FD302003F050FD302003F04DFDC7209B
:100C000003F050FDB72003F047FD362003F04AFD06
:100C1000482003F041FD3A2003F044FD552003F045
:100C20003BFDB12003F03EFD002003F035FD1A200E
:100C300003F032FDB62003F035FD0A2000E0ACE001
:100C400003F02AFDA22003F027FDF22003F02AFD85
:100C5000002003F021FD262003F024FD012003F0F5
:100C60001BFDE02003F01EFD0F2003F015FD2A20E0
:100C700003F012FD282003F00FFD082003F00CFD07
:100C80000E2003F009FD082003F006FD542003F0B8
:100C900003FDA92003F000FD432003F0FDFC0A2022
:100CA00003F0FAFC0F2003F0F7FC002003F0F4FC43
:100CB000002003F0F1FC002003F0EEFC002003F024
:100CC000EBFCE12003F0EEFC002003F0E5FC152036
:100CD00003F0E2FC172003F0DFFC072003F0DCFC4C
:100CE000112003F0D9FC062003F0D6FC2B2003F0E2
:100CF000D3FC562003F0D0FC3C2003F0CDFC0520B3
:100D000003F0CAFC102003F0C7FC11E0000C014006
:100D100000140140001801400020014000010020A3
:100D2000204C43442049443A25780D0A0000000035
:100D30000F2003F0B1FC3F2003F0AEFC3F2003F096
:100D4000ABFC0F2003F0A8FC2B2003F0ABFC002031
:100D500003F0A2FC002003F09FFC012003F09CFCA8
:100D60003F2003F099FC2A2003F09CFC002003F0B4
:100D700093FC002003F090FC002003F08DFCEF209A
:100D800003F08AFC112003F08DFC782003F0CAFFE9
:100D9000292003F087FC03F020B9FE48808846F63E
:100DA000040188427ED1112003F07CFC142003F062
:100DB000B9FFD02003F076FC072003F06DFC422041
:100DC00003F06AFC1D2003F067FCD12003F06AFCED
:100DD000002003F061FC1A2003F05EFC092003F000
:100DE0005BFCD22003F05EFC012003F055FC2220C6
:100DF00003F052FCC02003F055FC102003F04CFC23
:100E00003B2003F049FC002003F046FC022003F0E5
:100E100043FC112003F040FCC52003F043FC0320F9
:100E200003F03AFCC82003F03DFC002003F034FC42
:100E3000252003F031FC212003F02EFC052003F0D7
:100E40002BFC002003F028FC0A2003F025FC652081
:100E500003F022FC252003F01FFC772003F01CFC8C
:100E6000502003F019FC0F2003F016FC002003F0C3
:100E700013FCF82003F016FC012003F00DFCFE200B
:100E800003F010FC002003F007FC022003F004FC38
:100E9000202003F007FC362003F004FC082003F0B8
:100EA000FBFB00E02AE03A2003F0FCFB552003F0B6
:100EB000F3FB2B2003F0F6FB002003F0EDFB0020FA
:100EC00003F0EAFB012003F0E7FB3F2003F0E4FB23
:100ED0002A2003F0E7FB002003F0DEFB002003F0F4
:100EE000DBFB012003F0D8FBDF2003F0D5FB7820EB
:100EF00003F018FF292003F0D5FB4CE7A5488088B4
:100F000045F21031884240F07C87ED2003F0CAFBA7
:100F1000012003F0C1FBFE2003F0BEFBEE2003F036
:100F2000C1FBDE2003F0B8FB212003F0B5FBF1206C
:100F300003F0B8FB012003F0AFFBDF2003F0B2FBAE
:100F4000102003F0A9FBC42003F0ACFB8F2003F0BA
:100F5000A3FBC62003F0A6FB002003F09DFBE220CC
:100F600003F09AFBE22003F097FBE22003F094FBEE
:100F7000BF2003F097FBAA2003F08EFBB02003F004
:100F800091FB0D2003F088FB002003F085FB0D2072
:100F900003F082FB002003F07FFB112003F07CFBB9
:100FA000002003F079FB192003F076FB002003F00A
:100FB00073FB212003F070FB002003F06DFB2D205C
:100FC00003F06AFB002003F067FB3D2003F064FBA5
:100FD000002003F061FB5D2003F05EFB002003F0C6
:100FE0005BFB5D2003F058FB002003F055FBB120B4
:100FF00003F058FB802003F04FFB002003F04CFB74
:101000008B2003F049FB002003F046FB962003F001
:1010100043FB002003F040FBB22003F043FB002021
:1010200003F03AFB002003F037FB022003F034FB0F
:10103000002003F031FB032003F02EFB002003F01F
:101040002BFBB32003F02EFB002003F025FB002038
:1010500003F022FB002003F01FFB002003F01CFB29
:10106000002003F019FB002003F016FB002003F022
:1010700013FB002003F010FB002003F00DFB002009
:1010800003F00AFB002003F007FB002003F004FB41
:10109000002003F001FB002003F0FEFA002003F023
:1010A000FBFA002003F0F8FA002003F0F5FA002024
:1010B00003F0F2FA002003F0EFFA002003F0ECFA5C
:1010C000002003F0E9FA002003F0E6FA002003F024
:1010D000E3FA002003F0E0FAB42003F0E3FA8B20F7
:1010E00003F0DAFA002003F0D7FA962003F0D4FADE
:1010F000002003F0D1FAA12003F0CEFA002003F083
:10110000CBFAB52003F0CEFA022003F0C5FA002096
:1011100003F0C2FA032003F0BFFA002003F0BCFA88
:10112000042003F0B9FA002003F0B6FAB62003F069
:10113000B9FA002003F0B0FA002003F0ADFAB720AE
:1011400003F0B0FA002003F0A7FA002003F0A4FA9D
:101150003F2003F0A1FA002003F09EFA5E2003F086
:101160009BFA002003F098FA642003F095FA00201F
:1011700003F092FA8C2003F08FFA002003F08CFA2F
:10118000AC2003F089FA002003F086FADC2003F09B
:1011900083FA01E000010020002003F07DFA7020B6
:1011A00003F07AFA002003F077FA902003F074FA43
:1011B000002003F071FAEB2003F06EFA002003F038
:1011C0006BFADC2003F068FA002003F065FAB8201F
:1011D00003F068FA002003F05FFA002003F05CFAE5
:1011E000002003F059FA002003F056FA002003F023
:1011F00053FA002003F050FA002003F04DFA0020CB
:1012000003F04AFABA2003F04DFA242003F044FA1E
:10121000002003F041FA002003F03EFA002003F022
:101220003BFAC12003F03EFA202003F035FA0020FB
:1012300003F032FA542003F02FFA002003F02CFAC6
:10124000FF2003F029FA002003F026FAC22003F061
:1012500029FA0A2003F020FA002003F01DFA0420E6
:1012600003F01AFA002003F017FAC32003F01AFA69
:101270003C2003F011FA002003F00EFA3A2003F0AC
:101280000BFA002003F008FA392003F005FA0020D9
:1012900003F002FA372003F0FFF9002003F0FCF915
:1012A0003C2003F0F9F9002003F0F6F9362003F0B2
:1012B000F3F9002003F0F0F9322003F0EDF90020FB
:1012C00003F0EAF92F2003F0E7F9002003F0E4F936
:1012D0002C2003F0E1F9002003F0DEF9292003F0CF
:1012E000DBF9002003F0D8F9262003F0D5F900201F
:1012F00003F0D2F9242003F0CFF9002003F0CCF959
:10130000242003F0C9F9002003F0C6F9232003F0DC
:10131000C3F9002003F0C0F93C2003F0BDF9002020
:1013200003F0BAF9362003F0B7F9002003F0B4F95E
:10133000322003F0B1F9002003F0AEF92F2003F0C2
:10134000ABF9002003F0A8F92C2003F0A5F9002048
:1013500003F0A2F9292003F09FF9002003F09CF983
:10136000262003F099F9002003F096F9242003F0D9
:1013700093F9002003F090F9242003F08DF9002068
:1013800003F08AF9232003F087F9002003F084F9A1
:10139000C42003F087F9622003F07EF9002003F0F7
:1013A0007BF9052003F078F9002003F075F984201B
:1013B00003F072F9002003F06FF9F02003F06CF9EC
:1013C000002003F069F9182003F066F9002003F00B
:1013D00063F9A42003F060F9002003F05DF9182000
:1013E00003F05AF9002003F057F9502003F054F9A4
:1013F000002003F051F90C2003F04EF9002003F017
:101400004BF9172003F048F9002003F045F9952027
:1014100003F042F9002003F03FF9F32003F03CF918
:10142000002003F039F9E62003F036F9002003F03C
:1014300033F9C52003F036F9322003F02DF90020EE
:1014400003F02AF9442003F027F9002003F024F9DF
:10145000652003F021F9002003F01EF9762003F047
:101460001BF9002003F018F9882003F015F900207B
:1014700003F012F9C62003F015F9202003F00CF94F
:10148000002003F009F9172003F006F9002003F00B
:1014900003F9012003F000F9002003F0FDF8C72054
:1014A00003F000F9002003F0F7F8002003F0F4F84F
:1014B000002003F0F1F8002003F0EEF8C82003F05C
:1014C000F1F8002003F0E8F8002003F0E5F8002030
:1014D00003F0E2F8002003F0DFF8C92003F0E2F89F
:1014E000002003F0D9F8002003F0D6F8002003F024
:1014F000D3F8002003F0D0F8002003F0CDF800204E
:1015000003F0CAF8002003F0C7F8002003F0C4F885
:10151000002003F0C1F8002003F0BEF8002003F023
:10152000BBF8002003F0B8F8002003F0B5F8002065
:1015300003F0B2F8002003F0AFF8002003F0ACF89D
:10154000E02003F0AFF8162003F0A6F8002003F027
:10155000A3F81C2003F0A0F8002003F09DF8212040
:1015600003F09AF8002003F097F8362003F094F87F
:10157000002003F091F8462003F08EF8002003F0DD
:101580008BF8522003F088F8002003F085F86420DF
:1015900003F082F8002003F07FF87A2003F07CF853
:1015A000002003F079F88B2003F076F8002003F098
:1015B00073F8992003F070F8002003F06DF8A8206C
:1015C00003F06AF8002003F067F8B92003F064F82C
:1015D000002003F061F8C42003F05EF8002003F05F
:1015E0005BF8CA2003F058F8002003F055F8D22029
:1015F00003F052F8002003F04FF8D92003F04CF824
:10160000002003F049F8E02003F046F8002003F042
:1016100043F8F32003F040F8002003F03DF8E12008
:1016200003F040F8162003F037F8002003F034F8F8
:101630001C2003F031F8002003F02EF8222003F0E4
:101640002BF8002003F028F8362003F025F80020BE
:1016500003F022F8452003F01FF8002003F01CF8E7
:10166000522003F019F8002003F016F8642003F06C
:1016700013F8002003F010F87A2003F00DF8002092
:1016800003F00AF88B2003F007F8002003F004F8B9
:10169000992003F001F8002002F0FEFFA82002F0DC
:1016A000FBFF002002F0F8FFB92002F0F5FF002058
:1016B00002F0F2FFC42002F0EFFF002002F0ECFF86
:1016C000CA2002F0E9FF002002F0E6FFD22002F07B
:1016D000E3FF002002F0E0FFD82002F0DDFF002051
:1016E00002F0DAFFE02002F0D7FF002002F0D4FF82
:1016F000F32002F0D1FF002002F0CEFFE22002F042
:10170000D1FF052002F0C8FF002002F0C5FF0B202A
:1017100002F0C2FF002002F0BFFF1B2002F0BCFF5E
:10172000002002F0B9FF342002F0B6FF002002F0E2
:10173000B3FF442002F0B0FF002002F0ADFF4F20C5
:1017400002F0AAFF002002F0A7FF612002F0A4FF30
:10175000002002F0A1FF792002F09EFF002002F09D
:101760009BFF882002F098FF002002F095FF972051
:1017700002F092FF002002F08FFFA62002F08CFF03
:10178000002002F089FFB72002F086FF002002F05F
:1017900083FFC22002F080FF002002F07DFFC720FF
:1017A00002F07AFF002002F077FFD12002F074FFF0
:1017B000002002F071FFD62002F06EFF002002F040
:1017C0006BFFDD2002F068FF002002F065FFF320D0
:1017D00002F062FF002002F05FFFE32002F062FFF0
:1017E000052002F059FF002002F056FF0A2002F007
:1017F00053FF002002F050FF1C2002F04DFF00209C
:1018000002F04AFF332002F047FF002002F044FFBD
:10181000442002F041FF002002F03EFF502002F081
:101820003BFF002002F038FF622002F035FF00206D
:1018300002F032FF782002F02FFF002002F02CFF90
:10184000882002F029FF002002F026FF972002F0F6
:1018500023FF002002F020FFA62002F01DFF002041
:1018600002F01AFFB72002F017FF002002F014FF69
:10187000C22002F011FF002002F00EFFC72002F08C
:101880000BFF002002F008FFD12002F005FF00202E
:1018900002F002FFD52002F0FFFE002002F0FCFE65
:1018A000DD2002F0F9FE002002F0F6FEF32002F047
:1018B000F3FE002002F0F0FEE42002F0F3FE01202F
:1018C00002F0EAFE002002F0E7FE012002F0E4FE52
:1018D000002002F0E1FE022002F0DEFE002002F015
:1018E000DBFE2A2002F0D8FE002002F0D5FE3C20CC
:1018F00002F0D2FE002002F0CFFE4B2002F0CCFE20
:10190000002002F0C9FE5D2002F0C6FE002002F0B9
:10191000C3FE742002F0C0FE002002F0BDFE842051
:1019200002F0BAFE002002F0B7FE932002F0B4FEEF
:10193000002002F0B1FEA22002F0AEFE002002F074
:10194000ABFEB32002F0A8FE002002F0A5FEBE20F0
:1019500002F0A2FE002002F09FFEC42002F09CFED6
:10196000002002F099FECD2002F096FE002002F049
:1019700093FED32002F090FE002002F08DFEDD20C9
:1019800002F08AFE002002F087FEF32002F084FEBF
:10199000002002F081FEE52002F084FE002002F02B
:1019A0007BFE002002F078FE002002F075FE002091
:1019B00002F072FE022002F06FFE002002F06CFEC8
:1019C000292002F069FE002002F066FE3C2002F0B1
:1019D00063FE002002F060FE4B2002F05DFE00205E
:1019E00002F05AFE5D2002F057FE002002F054FE85
:1019F000742002F051FE002002F04EFE842002F01E
:101A00004BFE002002F048FE932002F045FE00202D
:101A100002F042FEA22002F03FFE002002F03CFE57
:101A2000B32002F039FE002002F036FEBE2002F0A4
:101A300033FE002002F030FEC42002F02DFE002014
:101A400002F02AFECD2002F027FE002002F024FE44
:101A5000D32002F021FE002002F01EFEDC2002F066
:101A60001BFE002002F018FEF32002F015FE0020FD
:101A700002F012FEE62002F015FE112002F00CFE2C
:101A8000002002F009FE342002F006FE002002F0E1
:101A900003FE562002F000FE002002F0FDFD76203D
:101AA00002F0FAFD002002F0F7FD772002F0F4FDCD
:101AB000002002F0F1FD662002F0EEFD002002F0B1
:101AC000EBFD882002F0E8FD002002F0E5FD992002
:101AD00002F0E2FD002002F0DFFDBB2002F0DCFDA1
:101AE000002002F0D9FD992002F0D6FD002002F07E
:101AF000D3FD662002F0D0FD002002F0CDFD552080
:101B000002F0CAFD002002F0C7FD552002F0C4FD1E
:101B1000002002F0C1FD452002F0BEFD002002F0D1
:101B2000BBFD432002F0B8FD002002F0B5FD4420CB
:101B300002F0B2FD002002F0AFFDE72002F0B2FD9E
:101B4000322002F0A9FD002002F0A6FD552002F08F
:101B5000A3FD002002F0A0FD762002F09DFD0020F4
:101B600002F09AFD662002F097FD002002F094FD3D
:101B7000672002F091FD002002F08EFD672002F048
:101B80008BFD002002F088FD872002F085FD0020FB
:101B900002F082FD992002F07FFD002002F07CFD22
:101BA000BB2002F079FD002002F076FD992002F0C2
:101BB00073FD002002F070FD772002F06DFD002023
:101BC00002F06AFD442002F067FD002002F064FD8F
:101BD000562002F061FD002002F05EFD232002F09D
:101BE0005BFD002002F058FD332002F055FD00207F
:101BF00002F052FD452002F04FFD002002F04CFDA6
:101C0000E82002F04FFD002002F046FD002002F027
:101C100043FD992002F040FD002002F03DFD8720A9
:101C200002F03AFD002002F037FD882002F034FD7A
:101C3000002002F031FD772002F02EFD002002F09E
:101C40002BFD662002F028FD002002F025FD8820F3
:101C500002F022FD002002F01FFDAA2002F01CFD70
:101C6000002002F019FDBB2002F016FD002002F05A
:101C700013FD992002F010FD002002F00DFD6620FA
:101C800002F00AFD002002F007FD552002F004FDDD
:101C9000002002F001FD552002F0FEFC002002F0C1
:101CA000FBFC442002F0F8FC002002F0F5FC44208C
:101CB00002F0F2FC002002F0EFFC552002F0ECFCF8
:101CC000002002F0E9FCE92002F0ECFCAA2002F07E
:101CD000E3FC002002F0E0FC002002F0DDFC00202C
:101CE00002F0DAFC002002F0DDFCAA2002F0D4FCB5
:101CF000CF2002F0D7FC002002F0CEFC002002F042
:101D0000CBFC002002F0C8FC002002F0C5FC002043
:101D100002F0C2FC002002F0BFFC002002F0BCFC7C
:101D2000002002F0B9FC002002F0B6FC002002F016
:101D3000B3FC002002F0B0FC002002F0ADFC00205B
:101D400002F0AAFC002002F0A7FC002002F0A4FC94
:101D5000002002F0A1FC002002F09EFCF02002F026
:101D6000A1FC002002F098FC502002F095FC00201D
:101D700002F092FC002002F08FFC002002F08CFCAC
:101D8000F32002F08FFC002002F086FCF92002F024
:101D900089FC062002F080FC102002F07DFC292046
:101DA00002F07AFC002002F077FC3A2002F07AFC84
:101DB000552002F071FC112002F074FC642002F046
:101DC000B1FF292002F06EFC352002F06BFC0020F0
:101DD00002F062FC512002F065FCFF2002F05CFC86
:101DE000532002F05FFC2C2002F056FC552002F03C
:101DF00059FC822002F050FC2C2002F053FC02F02F
:101E0000ECB8FE48808845F2105188427ED15521B9
:101E10004FF4704002F056FCAA214FF2010002F08C
:101E200051FC52214FF2020002F04CFC08214FF20B
:101E3000030002F047FC01214FF2040002F042FCD3
:101E40000D214FF4304002F03DFC0D214BF201001A
:101E500002F038FC0D214BF2020002F033FC342179
:101E60004FF4364002F02EFC34214BF2016002F0B8
:101E700029FC34214BF2026002F024FC0D214FF4C6
:101E8000314002F01FFC0D214BF2011002F01AFC50
:101E90000D214BF2021002F015FC34214FF43740B3
:101EA00002F010FC34214BF2017002F00BFC3421E3
:101EB0004BF2027002F006FC00214FF4324002F0B7
:101EC00001FC00214BF2012002F0FCFB00214BF24F
:101ED000022002F0F7FB24214FF4384002F0F2FB1D
:101EE00024214BF6010002F0EDFB24214BF6020009
:101EF00002F0E8FB01214FF43F4002F0E3FB0F2129
:101F00004FF4334002F0DEFB0F2100E0FEE34BF222
:101F1000013002F0D7FB0F214BF2023002F0D2FB6E
:101F200034214FF4394002F0CDFB34214BF601103F
:101F300002F0C8FB34214BF6021002F0C3FB08216B
:101F40004FF4354002F0BEFB08214BF2015002F085
:101F5000B9FB08214BF2025002F0B4FB03214FF40D
:101F6000424002F0AFFB24214FF43A4002F0AAFBBA
:101F700024214BF6012002F0A5FB24214BF6022080
:101F800002F0A0FB00214FF43C4002F09BFB7821C3
:101F90004BF6014002F096FB00214BF6024002F0A6
:101FA00091FB00214FF43D4002F08CFB78214BF671
:101FB000015002F087FB00214BF6025002F082FB39
:101FC00000214FF43E4002F07DFB64214BF601609E
:101FD00002F078FB00214FF4514002F073FB3321F3
:101FE0004DF2011002F06EFB00214DF2021002F0E2
:101FF00069FB34214DF2031002F064FB00214DF225
:10200000041002F05FFB3A214DF2051002F05AFB7A
:1020100000214DF2061002F055FB4A214DF2071047
:1020200002F050FB00214DF2081002F04BFB5C2146
:102030004DF2091002F046FB00214DF20A1002F0A9
:1020400041FB81214DF20B1002F03CFB00214DF2CF
:102050000C1002F037FBA6214DF20D1002F032FBFE
:1020600000214DF20E1002F02DFBE5214DF20F1074
:1020700002F028FB01214DF2101002F023FB132186
:102080004DF2111002F01EFB01214DF2121002F070
:1020900019FB54214DF2131002F014FB01214DF2F3
:1020A000141002F00FFB82214DF2151002F00AFB12
:1020B00001214DF2161002F005FBCA214DF2171056
:1020C00002F000FB02214DF2181002F0FBFA002191
:1020D0004DF2191002F0F6FA02214DF21A1002F038
:1020E000F1FA01214DF21B1002F0ECFA02214DF23F
:1020F0001C1002F0E7FA34214DF21D1002F0E2FA52
:1021000002214DF21E1002F0DDFA67214DF21F1080
:1021100002F0D8FA02214DF2201002F0D3FA842105
:102120004DF2211002F0CEFA02214DF2221002F0FF
:10213000C9FAA4214DF2231002F0C4FA02214DF293
:10214000241002F0BFFAB7214DF2251002F0BAFABE
:1021500002214DF2261002F0B5FACF214DF22710E0
:1021600002F0B0FA02214DF2281002F0ABFADE21A3
:102170004DF2291002F0A6FA02214DF22A1002F0C7
:10218000A1FAF2214DF22B1002F09CFA02214DF23D
:102190002C1002F097FAFE214DF22D1002F092FA67
:1021A00003214DF22E1002F08DFA10214DF22F1066
:1021B00002F088FA03214DF2301002F083FA332145
:1021C0004DF2311002F07EFA03214DF2321002F08E
:1021D00079FA6D214DF2331002F074FA00214FF4B8
:1021E000524002F06FFA33214DF2012002F06AFAF8
:1021F00000214DF2022002F065FA01E0000100200A
:1022000034214DF2032002F05DFA00214DF204204A
:1022100002F058FA3A214DF2052002F053FA00215B
:102220004DF2062002F04EFA4A214DF2072002F04C
:1022300049FA00214DF2082002F044FA5C214DF2E7
:10224000092002F03FFA00214DF20A2002F03AFA8A
:1022500081214DF20B2002F035FA00214DF20C20C5
:1022600002F030FAA6214DF20D2002F02BFA0021E7
:102270004DF20E2002F026FAE5214DF20F2002F079
:1022800021FA01214DF2102002F01CFA13214DF227
:10229000112002F017FA01214DF2122002F012FA79
:1022A00054214DF2132002F00DFA01214DF21420B9
:1022B00002F008FA82214DF2152002F003FA012102
:1022C0004DF2162002F0FEF9CA214DF2172002F05D
:1022D000F9F902214DF2182002F0F4F900214DF233
:1022E000192002F0EFF902214DF21A2002F0EAF96A
:1022F00001214DF21B2002F0E5F902214DF21C20D4
:1023000002F0E0F934214DF21D2002F0DBF9022148
:102310004DF21E2002F0D6F967214DF21F2002F087
:10232000D1F902214DF2202002F0CCF984214DF2A6
:10233000212002F0C7F902214DF2222002F0C2F959
:10234000A4214DF2232002F0BDF902214DF22420F8
:1023500002F0B8F9B7214DF2252002F0B3F90221BD
:102360004DF2262002F0AEF9CF214DF2272002F0E7
:10237000A9F902214DF2282002F0A4F9DE214DF244
:10238000292002F09FF902214DF22A2002F09AF949
:10239000F2214DF22B2002F095F902214DF22C2072
:1023A00002F090F9FE214DF22D2002F08BF903216D
:1023B0004DF22E2002F086F910214DF22F2002F06E
:1023C00081F903214DF2302002F07CF933214DF2E6
:1023D000312002F077F903214DF2322002F072F938
:1023E0006D214DF2332002F06DF900214FF453407E
:1023F00002F068F933214DF2013002F063F9002157
:102400004DF2023002F05EF934214DF2033002F059
:1024100059F900214DF2043002F054F93A214DF2FD
:10242000053002F04FF900214DF2063002F04AF972
:102430004A214DF2073002F045F900214DF20830F3
:1024400002F040F95C214DF2093002F03BF9002125
:102450004DF20A3002F036F981214DF20B3002F0D4
:1024600031F900214DF20C3002F02CF9A6214DF289
:102470000D3002F027F900214DF20E3002F022F962
:10248000E5214DF20F3002F01DF901214DF210301F
:1024900002F018F913214DF2113002F013F9012165
:1024A0004DF2123002F00EF954214DF2133002F0C9
:1024B00009F901214DF2143002F004F982214DF2A4
:1024C000153002F0FFF801214DF2163002F0FAF853
:1024D000CA214DF2173002F0F5F802214DF2183002
:1024E00002F0F0F800214DF2193002F0EBF8022171
:1024F0004DF21A3002F0E6F801214DF21B3002F0E5
:10250000E1F802214DF21C3002F0DCF834214DF2EA
:102510001D3002F0D7F802214DF21E3002F0D2F841
:1025200067214DF21F3002F0CDF802214DF220302C
:1025300002F0C8F884214DF2213002F0C3F80221E4
:102540004DF2223002F0BEF8A4214DF2233002F009
:10255000B9F802214DF2243002F0B4F8B7214DF25F
:10256000253002F0AFF802214DF2263002F0AAF831
:10257000CF214DF2273002F0A5F802214DF228308C
:1025800002F0A0F8DE214DF2293002F09BF8022182
:102590004DF22A3002F096F8F2214DF22B3002F083
:1025A00091F802214DF22C3002F08CF8FE214DF210
:1025B0002D3002F087F803214DF22E3002F082F820
:1025C00010214DF22F3002F07DF803214DF2303012
:1025D00002F078F833214DF2313002F073F8032124
:1025E0004DF2323002F06EF86D214DF2333002F0D0
:1025F00069F800214FF4544002F064F833214DF2A1
:10260000014002F05FF800214DF2024002F05AF85A
:1026100034214DF2034002F055F800214DF2044000
:1026200002F050F83A214DF2054002F04BF800213B
:102630004DF2064002F046F84A214DF2074002F002
:1026400041F800214DF2084002F03CF85C214DF2C7
:10265000094002F037F800214DF20A4002F032F84A
:1026600081214DF20B4002F02DF800214DF20C407B
:1026700002F028F8A6214DF20D4002F023F80021C7
:102680004DF20E4002F01EF8E5214DF20F4002F02F
:1026900019F801214DF2104002F014F813214DF207
:1026A000114002F00FF801214DF2124002F00AF839
:1026B00054214DF2134002F005F801214DF214406F
:1026C00002F000F882214DF2154001F0FBFF0121DC
:1026D0004DF2164001F0F6FFCA214DF2174001F00D
:1026E000F1FF02214DF2184001F0ECFF00214DF204
:1026F000194001F0E7FF02214DF21A4001F0E2FF1C
:1027000001214DF21B4001F0DDFF00E004E3022156
:102710004DF21C4001F0D6FF34214DF21D4001F076
:10272000D1FF02214DF21E4001F0CCFF67214DF296
:102730001F4001F0C7FF02214DF2204001F0C2FF0F
:1027400084214DF2214001F0BDFF02214DF22240D3
:1027500001F0B8FFA4214DF2234001F0B3FF0221A4
:102760004DF2244001F0AEFFB7214DF2254001F0BB
:10277000A9FF02214DF2264001F0A4FFCF214DF226
:10278000274001F09FFF02214DF2284001F09AFFFF
:10279000DE214DF2294001F095FF02214DF22A4041
:1027A00001F090FFF2214DF22B4001F08BFF02214E
:1027B0004DF22C4001F086FFFE214DF22D4001F03C
:1027C00081FF03214DF22E4001F07CFF10214DF2DC
:1027D0002F4001F077FF03214DF2304001F072FFEE
:1027E00033214DF2314001F06DFF03214DF23240B3
:1027F00001F068FF6D214DF2334001F063FF0021CD
:102800004FF4554001F05EFF33214DF2015001F0CD
:1028100059FF00214DF2025001F054FF34214DF2D6
:10282000035001F04FFF00214DF2045001F04AFF28
:102830003A214DF2055001F045FF00214DF20650BE
:1028400001F040FF4A214DF2075001F03BFF00210B
:102850004DF2085001F036FF5C214DF2095001F0B5
:1028600031FF00214DF20A5001F02CFF81214DF281
:102870000B5001F027FF00214DF20C5001F022FF18
:10288000A6214DF20D5001F01DFF00214DF20E501A
:1028900001F018FFE5214DF20F5001F013FF012167
:1028A0004DF2105001F00EFF13214DF2115001F0C6
:1028B00009FF01214DF2125001F004FF54214DF2A5
:1028C000135001F0FFFE01214DF2145001F0FAFE09
:1028D00082214DF2155001F0F5FE01214DF2165006
:1028E00001F0F0FECA214DF2175001F0EBFE02217B
:1028F0004DF2185001F0E6FE00214DF2195001F0A2
:10290000E1FE02214DF21A5001F0DCFE01214DF2F0
:102910001B5001F0D7FE02214DF21C5001F0D2FEF7
:1029200034214DF21D5001F0CDFE02214DF21E501A
:1029300001F0C8FE67214DF21F5001F0C3FE0221D5
:102940004DF2205001F0BEFE84214DF2215001F0E5
:10295000B9FE02214DF2225001F0B4FEA4214DF245
:10296000235001F0AFFE02214DF2245001F0AAFEE7
:10297000B7214DF2255001F0A5FE02214DF226505F
:1029800001F0A0FECF214DF2275001F09BFE022165
:102990004DF2285001F096FEDE214DF2295001F053
:1029A00091FE02214DF22A5001F08CFEF2214DF2EF
:1029B0002B5001F087FE02214DF22C5001F082FED7
:1029C000FE214DF22D5001F07DFE03214DF22E50DF
:1029D00001F078FE10214DF22F5001F073FE03211B
:1029E0004DF2305001F06EFE33214DF2315001F0C6
:1029F00069FE03214DF2325001F064FE6D214DF26B
:102A0000335001F05FFE00214FF4564001F05AFEB2
:102A100033214DF2016001F055FE00214DF20260BC
:102A200001F050FE34214DF2036001F04BFE002115
:102A30004DF2046001F046FE3A214DF2056001F0CE
:102A400041FE00214DF2066001F03CFE4A214DF2AC
:102A5000076001F037FE00214DF2086001F032FE00
:102A60005C214DF2096001F02DFE00214DF20A605B
:102A700001F028FE81214DF20B6001F023FE0021C0
:102A80004DF20C6001F01EFEA6214DF20D6001F02A
:102A900019FE00214DF20E6001F014FEE5214DF209
:102AA0000F6001F00FFE01214DF2106001F00AFEEF
:102AB00013214DF2116001F005FE01214DF212606B
:102AC00001F000FE54214DF2136001F0FBFD0121E5
:102AD0004DF2146001F0F6FD82214DF2156001F017
:102AE000F1FD01214DF2166001F0ECFDCA214DF21D
:102AF000176001F0E7FD02214DF2186001F0E2FDE0
:102B000000214DF2196001F0DDFD02214DF21A6045
:102B100001F0D8FD01214DF21B6001F0D3FD02212F
:102B20004DF21C6001F0CEFD34214DF21D6001F02C
:102B3000C9FD02214DF21E6001F0C4FD67214DF276
:102B40001F6001F0BFFD02214DF2206001F0BAFDCF
:102B500084214DF2216001F0B5FD02214DF2226089
:102B600001F0B0FDA4214DF2236001F0ABFD022184
:102B70004DF2246001F0A6FDB7214DF2256001F071
:102B8000A1FD02214DF2266001F09CFDCF214DF206
:102B9000276001F097FD02214DF2286001F092FDBF
:102BA000DE214DF2296001F08DFD02214DF22A60F7
:102BB00001F088FDF2214DF22B6001F083FD02212E
:102BC0004DF22C6001F07EFDFE214DF22D6001F0F2
:102BD00079FD03214DF22E6001F074FD10214DF2BC
:102BE0002F6001F06FFD03214DF2306001F06AFDAE
:102BF00033214DF2316001F065FD03214DF2326069
:102C000001F060FD6D214DF2336001F05BFD552157
:102C10004FF4704001F056FDAA214FF2010001F07F
:102C200051FD52214FF2020001F04CFD08214FF2FC
:102C3000030001F047FD00214FF2040001F042FDC6
:102C4000CC214FF4314001F03DFD00214BF2011049
:102C500001F038FD05214FF4364001F033FD7021BD
:102C60004FF4374001F02EFD70214BF2017001F05E
:102C700029FD01214FF4384001F024FD03214BF6DA
:102C8000010001F01FFD03214BF6020001F01AFDC7
:102C900003214BF6030001F015FD02214FF43C40E7
:102CA00001F010FD00214BF6014001F00BFD002169
:102CB0004BF6024001F006FDD0214FF4494001F0EF
:102CC00001FD02214CF6011001F0FCFC50214CF6F4
:102CD000021001F0F7FC50214CF6031001F0F2FC59
:102CE00050214CF6041001F0EDFC00214FF454503B
:102CF00001F0E8FC55214FF4685001F0E3FC4FF47B
:102D0000885001F0CFFC782002F032F84FF42450C4
:102D100001F0C8FC01F061B9FE48808849F2253114
:102D200088427DD147F6F001E52001F0CBFC4FF45D
:102D30008071012001F0C6FC4FF4E061022001F037
:102D4000C1FC41F23001032001F0BCFC0021042051
:102D500001F0B8FC40F20221082001F0B3FC002190
:102D6000092001F0AFFC00210A2001F0ABFC00219A
:102D70000C2001F0A7FC00210D2001F0A3FC002194
:102D80000F2001F09FFC0021102001F09BFC072187
:102D9000112001F097FC0021122001F093FC00218A
:102DA000132001F08FFC0021072001F08BFC41F281
:102DB0009061102001F086FC40F22721112001F0E3
:102DC00081FC9D21122001F07DFC4FF4C85113209D
:102DD00001F078FC2521292001F074FC0D212B2025
:102DE00001F070FC0721302001F06CFC40F203314F
:102DF000312001F067FC0321322001F063FC40F236
:102E00000621352001F05EFC0821362001F05AFC35
:102E100040F20641372001F055FC4FF4417100E0CB
:102E200058E0382001F04EFC0721392001F04AFC1F
:102E300040F202613C2001F045FC08213D2001F0F8
:102E400041FC0021502001F03DFCEF21512001F018
:102E500039FC0021522001F035FC40F23F11532093
:102E600001F030FC4FF42741602001F02BFC0121E0
:102E7000612001F027FC00216A2001F023FC0021E1
:102E8000802001F01FFC0021812001F01BFC0021AB
:102E9000822001F017FC0021832001F013FC0021A7
:102EA000842001F00FFC0021852001F00BFC102193
:102EB000902001F007FC4FF4C061922001F002FC69
:102EC00040F23311072001F0FDFB2221002001F028
:102ED000F9FB1FE78F48808849F2283188427DD16D
:102EE00041F28F01EC2001F0EDFB41F23421EF20A3
:102EF00001F0E8FB4FF48071012001F0E3FB4FF497
:102F0000E061022001F0DEFB41F23001032001F01C
:102F1000D9FB0021042001F0D5FB40F2022108205A
:102F200001F0D0FB0021092001F0CCFB00210A2098
:102F300001F0C8FB01210C2001F0C4FB00210D2091
:102F400001F0C0FB00210F2001F0BCFB002110208C
:102F500001F0B8FB0721112001F0B4FB0021122081
:102F600001F0B0FB0021132001F0ACFB0121072090
:102F700001F0A8FB322001F0D5FE41F29041102073
:102F800001F0A0FB40F22721112001F09BFB322031
:102F900001F0C8FE8A21122001F094FB322001F0DA
:102FA000C1FE4FF4D051132001F08CFB06212920E3
:102FB00001F088FB0D212B2001F084FB322001F071
:102FC000B1FE0021202001F07DFB0021212001F035
:102FD00079FB322001F0A6FE002100E075E03020F0
:102FE00001F070FB40F20461312001F06BFB40F214
:102FF0000531322001F066FB0021352001F062FB33
:1030000040F60941362001F05DFB4FF40171372095
:1030100001F058FB40F20131382001F053FB40F23F
:103020000771392001F04EFB00213C2001F04AFBE2
:1030300040F60A213D2001F045FB322001F072FEEE
:103040000021502001F03EFBEF21512001F03AFB1E
:103050000021522001F036FB40F23F11532001F0D5
:1030600031FB4FF42741602001F02CFB012161204E
:1030700001F028FB00216A2001F024FB00218020C0
:1030800001F020FB0021812001F01CFB00218220A7
:1030900001F018FB0021832001F014FB00218420A3
:1030A00001F010FB0021852001F00CFB1021902085
:1030B00001F008FB4FF4C061922001F003FB40F2E5
:1030C0003311072001F0FEFA24E61248808849F205
:1030D000203188427ED10021084601F0F3FA4FF4F6
:1030E0008071012001F0EEFA4FF4E061022001F05E
:1030F000E9FA41F23001032001F0E4FA0021042052
:1031000001F0E0FA40F20221082001F0DBFA002190
:10311000092001E00001002001F0D4FA00210A207A
:1031200001F0D0FA01210C2001F0CCFA00210D2091
:1031300001F0C8FA00210F2001F0C4FA322001F09A
:10314000F1FD40F20111072001F0BCFA322001F03C
:10315000E9FD4FF48651102001F0B4FA0721112047
:1031600001F0B0FA4FF48871122001F0ABFA4FF47D
:103170003061132001F0A6FA0021292001F0A2FA03
:1031800044F210012B2001F09DFA0021502001F0A3
:1031900099FAEF21512001F095FA0021522001F017
:1031A00091FA40F23F11532001F08CFA4FF41C5178
:1031B000602001F087FA0121612001F083FA0021EB
:1031C0006A2001F07FFA0021802001F07BFA0021C3
:1031D000812000E030E001F075FA0021822001F04A
:1031E00071FA0021832001F06DFA0021842001F0A2
:1031F00069FA0021852001F065FA1021902001F084
:1032000061FA0021922001F05DFA0121932001F082
:1032100059FA4FF48871952001F054FA0021972053
:1032200001F050FA0021982001F04CFA40F273119D
:10323000072001F047FA6DE5FE48808849F23131F8
:1032400088427DD141F21401E72001F03BFA4FF4AE
:103250008071012001F036FA4FF40071022001F074
:1032600031FA41F23801032001F02CFA40F2022138
:10327000082001F027FA0021092001F023FA00219B
:103280000A2001F01FFA00210C2001F01BFA002196
:103290000D2001F017FA00210F2001F013FA002190
:1032A000102001F00FFA0721112001F00BFA002184
:1032B000122001F007FA0021132001F003FAC820C0
:1032C00001F030FD41F29061102001F0FBF940F275
:1032D0002721112001F0F6F9322001F023FD0C2105
:1032E000122001F0EFF9322001F01CFD4FF40061D3
:1032F000132001F0E7F91121292001F0E3F90B2156
:103300002B2001F0DFF9322001F00CFD00212020FC
:1033100001F0D8F940F23F11212001F0D3F900214A
:10332000302001F0CFF94FF48371312001F0CAF958
:103330000021322001F0C6F94FF40171352000E080
:1033400064E001F0BFF941F20A61362001F0BAF9F8
:1033500040F20771372001F0B5F94FF4837138203E
:1033600001F0B0F940F20771392001F0ABF940F2F9
:1033700002413C2001F0A6F940F60F413D2001F04A
:10338000A1F90021502001F09DF9EF21512001F019
:1033900099F90021522001F095F940F23F11532094
:1033A00001F090F94FF41C51602001F08BF90121DC
:1033B000612001F087F900216A2001F083F90021E2
:1033C000802001F07FF90021812001F07BF90021AC
:1033D000822001F077F90021832001F073F90021A8
:1033E000842001F06FF90021852001F06BF9102194
:1033F000902001F067F94FF4C061922001F062F96A
:1034000040F23311072001F05DF983E48948808898
:1034100045F2084188427DD14FF48071012001F0CE
:1034200051F94FF4E061022001F04CF941F2300112
:10343000032001F047F90021042001F043F940F294
:103440000721082001F03EF90021092001F03AF996
:1034500000210A2001F036F900210C2001F032F998
:1034600000210D2001F02EF900210F2001F02AF992
:10347000142001F057FC41F2B061102001F022F954
:103480000121112001F01EF90121172001F01AF984
:103490004FF49C71122001F015F94FF400611320D4
:1034A00001F010F90921292001F00CF909212A2045
:1034B00001F008F90021A42001F004F900215020B6
:1034C00001F000F9EF21512001F0FCF80021522019
:1034D00001F0F8F840F23F11532001F0F3F84FF4F7
:1034E0001C51602001F0EEF80121612001F0EAF8A2
:1034F00000216A2001F0E6F80021802001F0E2F8C6
:103500000021812001F0DEF80021822001F0DAF8AC
:10351000002100E024E0832001F0D4F80021842081
:1035200001F0D0F80021852001F0CCF81321902083
:1035300001F0C8F80021922001F0C4F80321932083
:1035400001F0C0F84FF48871952001F0BBF840F20B
:103550007311072001F0B6F8322001F0E3FBB8E464
:103560003448808841F2055188427DD100210720EE
:1035700001F0A8F8322001F0D5FB4FF48E71122033
:1035800001F0A0F80121A42001F09CF80F210820EF
:1035900001F098F808210A2001F094F808210D2084
:1035A00001F090F840F20771302001F08BF807210C
:1035B000312001F087F840F20361322001F082F8F7
:1035C0004FF4E061332001F07DF840F20221342015
:1035D00001F078F80221352001F074F841F60F71FE
:1035E000362001F06FF840F20771372001F06AF8D9
:1035F0000021382001F066F80021392001F062F83E
:1036000040F207713A2001F05DF800213B2001F003
:1036100059F807213C2001F055F800213D2001F028
:1036200051F8322001F07EFB0121072001F04AF819
:10363000012101E000010020172001F043F83220B1
:1036400001F070FB4FF4BD51102001F03BF840F247
:103650001721112001F036F84FF48F71122001F07C
:1036600031F84FF4706100E098E0132001F02AF87F
:1036700000212A2001F026F80A21292001F022F851
:103680004FF49F71122001F01DF80021502001F02D
:1036900019F8EF21512001F015F80021522001F016
:1036A00011F840F23F11532001F00CF84FF41C5177
:1036B000602001F007F80121612001F003F80021EA
:1036C0006A2000F0FFFF0021802000F0FBFF0021B6
:1036D000812000F0F7FF0021822000F0F3FF00219D
:1036E000832000F0EFFF0021842000F0EBFF002199
:1036F000852000F0E7FF1321902000F0E3FF4FF456
:103700004071922000F0DEFF0521932000F0DAFFE7
:103710000021952000F0D6FF0021972000F0D2FF75
:103720000021982000F0CEFF4FF48071012000F0BE
:10373000C9FF4FF4E061022000F0C4FF41F23801FC
:10374000032000F0BFFF0021042000F0BBFF002198
:103750000C2000F0B7FF00210F2000F0B3FF002184
:10376000202000F0AFFF0021212000F0ABFF21213D
:10377000072000F0A7FF142001F0D4FA61210720F0
:1037800000F0A0FF142001F0CDFA40F273110720E1
:1037900000F098FF142001F0C5FA95E4FE488088F7
:1037A0004BF2055188427CD10021084600F08AFF87
:1037B0000021084600F086FF0021084600F082FF45
:1037C0000021084600F07EFF0121A42000F07AFFCE
:1037D000142001F0A7FA4FF41C51602000F072FF92
:1037E00040F20221082000F06DFF4FF405713020F7
:1037F00000F068FF43F21571312000F063FF40F2E2
:103800000461322000F05EFF40F61661332000F0C4
:1038100059FF42F21121342000F054FF4FF4A85117
:10382000352000F04FFF48F20751362000F04AFFE4
:1038300041F20741372000F045FF41F203413820B3
:1038400000F040FF2021392000F03CFF1A21902099
:1038500000F038FF0021102000F034FF0721112074
:1038600000F030FF0021122000F02CFF0021132077
:1038700000F028FF142001F055FA4FF4E661102003
:1038800000F020FF40F23711112000F01BFF142040
:1038900001F048FA4FF4DC71122000F013FF1420FD
:1038A00000E085E001F03EFA4FF47061132000F073
:1038B00009FF80212A2000F005FF4821292000F07F
:1038C00001FF142001F02EFA4FF48071012000F066
:1038D000F9FE4FF4E061022000F0F4FE41F23801FD
:1038E000032000F0EFFE40F20221082000F0EAFE83
:1038F00000210A2000F0E6FE00210C2000F0E2FE8C
:1039000000210D2000F0DEFE30210E2000F0DAFE56
:103910000021502000F0D6FEEF21512000F0D2FE11
:103920000021522000F0CEFE40F23F11532000F063
:10393000C9FE4FF41C51602000F0C4FE012161203B
:1039400000F0C0FE00216A2000F0BCFE1121902092
:1039500000F0B8FE4FF4C061922000F0B3FE40F2D8
:103960000241932000F0AEFE0221942000F0AAFE56
:10397000142001F0D7F90121072000F0A3FE142044
:1039800001F0D0F96121072000F09CFE40F2731194
:10399000072000F097FE0021202000F093FE002178
:1039A000212000F08FFE2221002000F08BFE14E386
:1039B000794880884CF2055188427CD10021084624
:1039C00000F080FE0021084600F07CFE142001F08B
:1039D000A9F90021084600F075FE0021084600F014
:1039E00071FE0021084600F06DFE0021084600F03F
:1039F00069FE0121A42000F065FE142001F092F977
:103A00004FF41C51602000F05DFE40F606010820D6
:103A100000F058FE40F20371302000F053FE012107
:103A2000312000F04FFE0421322000F04BFE4FF415
:103A30008171332000F046FE4FF44071342000F0D5
:103A400041FE40F20311352000F03CFE1F213620DC
:103A500000F038FE40F20371372000F033FE012100
:103A6000382000F02FFE0421392000F02BFE152114
:103A7000902000F027FE4FF48261102000F022FE1B
:103A800040F24721112000F01DFE4FF4DE7112209C
:103A900000F018FE4FF46061132000F013FE782050
:103AA00001F040F94FF48071012000F00BFE4FF45B
:103AB0000071022000E052E000F004FE41F230010B
:103AC000032000F0FFFD08210A2000F0FBFD00218B
:103AD0000C2000F0F7FD20210E2000F0F3FD002166
:103AE0000F2000F0EFFD0021202000F0EBFD002171
:103AF000212000F0E7FD3D212A2000F0E3FD142005
:103B000001F010F92D21292000F0DCFD00215020CA
:103B100000F0D8FD4DF2EF01512000F0D3FD00215F
:103B2000522000F0CFFD40F23F11532000F0CAFDBB
:103B30000021612000F0C6FD00216A2000F0C2FDD6
:103B40004FF44071922000F0BDFD0521932000F05C
:103B5000B9FD4FF48071072000F0B4FD3DE20E483E
:103B6000808848F6891188427ED10121002000F02A
:103B7000A9FD4AF6A401032000F0A4FD00210C20B9
:103B800000F0A0FD40F60C010D2000F09BFD4FF46D
:103B90002C510E2002E000000001002000F092FDF8
:103BA000B0211E2000F08EFD42F63F31012000F0D2
:103BB00089FD4FF4C061022000F084FD0021102037
:103BC00000F080FD46F27801112000F07BFD00211D
:103BD000052000F077FD0021062000F073FD4EF671
:103BE0001C71162000F06EFD0321172000F06AFD05
:103BF00040F23321072000F065FD00210B2000F08A
:103C000061FD00210F2000F05DFD0021412000F04A
:103C100059FD0021422000F055FD0021482000F010
:103C200051FD40F23F11492000F04CFD00214A2097
:103C300000F048FD00214B2000F044FD4FF46F419F
:103C4000442000F03FFD0021452000F03BFD40F204
:103C50003F11462000F036FD40F20771302000F0A1
:103C600031FD4FF4017100E040E0312000F02AFD09
:103C70004FF40171322000F025FD40F20251332053
:103C800000F020FD40F20751342000F01BFD4FF4FE
:103C90000171352000F016FD4FF40171362000F05F
:103CA00011FD40F20251372000F00CFD40F20231CC
:103CB0003A2000F007FD40F202313B2000F002FD07
:103CC0000021232000F0FEFC0021242000F0FAFC5B
:103CD0004FF40041252000F0F5FC00214F2000F0BA
:103CE000F1FC00214E2000F0EDFC76E1C148808817
:103CF00044F2315188427DD10121002000F0E2FCE4
:103D00000A2001F00FF841F22861102000F0DAFCDF
:103D10000E21122000F0D6FC40F63921132000F0CD
:103D2000D1FC0A2000F0FEFF4021112000F0CAFC67
:103D30005021152000F0C6FC0A2000F0F3FF1E21E0
:103D4000122000F0BFFC0A2000F0ECFF4FF4B1514C
:103D5000102000F0B7FC42F63921132000F0B2FC2D
:103D60000A2000F0DFFF4FF48071012000F0AAFC70
:103D70004FF44071022000F0A5FC41F2380103200D
:103D800000F0A0FC40F20221082000F09BFC08217A
:103D90000A2000F097FC0021302000F093FC40F254
:103DA0000241312000F08EFC4FF48371322000F08C
:103DB00089FC40F20351332000F084FC4FF48271FF
:103DC000342000F07FFC40F20131352000F07AFC15
:103DD00040F20771362000F075FC40F205313720C3
:103DE00000F070FC4FF40271382000F06BFC40F6DC
:103DF0000B7100E03CE0392000F064FC022141201E
:103E000000F060FC4FF41C51602000F05BFC0121CD
:103E1000612000F057FC4FF40471902000F052FC38
:103E20004FF48571922000F04DFC0421932000F0A6
:103E300049FC4FF48071A02000F044FC01210720D0
:103E400000F040FC2121072000F03CFC232107204A
:103E500000F038FC3321072000F034FC40F233112D
:103E6000072000F02FFC0021A02000F02BFCB4E084
:103E70006048808844F235518842F8D130211520BD
:103E800000F020FC10219A2000F01CFC20211120C1
:103E900000F018FC43F22841102000F013FC02212E
:103EA000122000F00FFC41F23801132000F00AFC50
:103EB000282000F037FF1221084600F003FC2820DC
:103EC00000F030FF43F22041102000F0FBFB43F2F2
:103ED0003801132000F0F6FB462000F023FF0021FC
:103EE000302000F0EFFB40F20241312000F0EAFB0D
:103EF00040F20731322000F0E5FB4FF441713320EE
:103F000000F0E0FB0421342000F0DCFB40F2014132
:103F1000352000F0D7FB40F20771362000F0D2FBCD
:103F200040F20531372000F0CDFB4FF4C26138205C
:103F300000F0C8FB4FF4C261392000F0C3FB4FF41E
:103F40008071012000F0BEFB4FF44071022000F0B0
:103F5000B9FB41F23001032000F0B4FB40F6080148
:103F6000082000F0AFFB08210A2000F0ABFB4FF463
:103F70001C51602000F0A6FB0121612000F0A2FB93
:103F80004FF49F71902000F09DFB4FF480719220C0
:103F900000F098FB4FF48071932000F093FB4FF4F6
:103FA0004051A02000F08EFB1021A32000F08AFBDE
:103FB0000121072000F086FB2121072000F082FB71
:103FC0002321072000F07EFB3321072000F07AFB3D
:103FD00040F23311072000F075FB0020FCF79EFB38
:103FE00001210548FCF75EFB4FF6FF70FCF760FB14
:103FF0001FB000BD00010020000C014010B50246BA
:10400000012000E050430B1EA1F10104E1B2F9D1FF
:1040100010BD000001480088704700000008006CD7
:1040200010B50446204600F03DFB052000F0A0FE40
:10403000FFF7F0FF10BD000070B504460023002616
:10404000AE48807901281ED1AC48808846F604012C
:10405000884218D0082C15D2DFE804F00406080ABC
:104060000C0E101206240DE007240BE0042409E0D6
:10407000052407E0012405E0002403E0032401E017
:10408000022400BF00BF9D48808849F24131884228
:1040900011D09A48808846F6040188420BD0974890
:1040A000808845F21031884205D09448808845F2D6
:1040B000105188427ED1082C1CD2DFE804F004069F
:1040C000090C0F12151800BF14E043F0800311E033
:1040D00043F040030EE043F0C0030BE043F0200345
:1040E00008E043F0600305E043F0A00302E043F082
:1040F000E00300BF00BF8148808845F2105188422C
:1041000002D14FF4585600E036267C48808845F2AC
:104110001031884207D07948808845F21051884292
:1041200001D043F008037548808846F604018842B0
:1041300001D143F002031946304600F0C3FA03F000
:10414000200018B96D48807901280DD16B4800888E
:104150006A494988884214DA68480588408867496E
:104160000880084645800CE0644800886349498817
:10417000884206DD61480588408860490880084615
:1041800045805E48808845F21051884254D15B4991
:10419000488900F087FA002000F07EFA57494989E3
:1041A000491C88B200F07EFA002000F075FA5349ED
:1041B000498900E06FE0891C88B200F073FA4F492A
:1041C0000988491EC1F30F2000F066FA4B4949895E
:1041D000C91C88B200F066FA48490978491EC8B27D
:1041E00000F05AFA4549888900F05CFA002000F096
:1041F00053FA42498989491C88B200F053FA0020D9
:1042000000F04AFA3D498989891C88B200F04AFACF
:104210003A494988491EC1F30F2000F03DFA374959
:104220008989C91C88B200F03DFA34498978491E51
:10423000C8B200F031FA60E03049488900F032FA43
:10424000002000F029FA002000F026FA2B49098806
:10425000491EC1F30F2000F01FFA28490978491EB2
:10426000C8B200F019FA2549888900F01BFA00202D
:1042700000F012FA002000F00FFA20494988491E88
:10428000C1F30F2000F008FA1C498978491EC8B212
:1042900000F002FA31E0082C1CD2DFE804F0040739
:1042A0000A0D0F12151843F0300313E043F010030A
:1042B00010E043F020030DE000BF0BE043F03803B3
:1042C00008E043F0280305E043F0180302E043F060
:1042D000080300BF00BF0948808848F6891188425A
:1042E00004D1112646F24000034302E0032643F4C2
:1042F00080531946304600F0E5F970BD00010020FA
:1043000010B503460C464048808849F24131884246
:1043100005D03D48808845F21031884214D13A4991
:10432000488900F0BFF9181200F0B6F9D8B200F0D1
:10433000B3F93549888900F0B5F9201200F0ACF9DD
:10434000E0B200F0A9F95DE02F48808846F604014C
:1043500088421DD12C488079012804D12A48008840
:10436000401EC01A83B22849488900F09BF91812F0
:1043700000F092F9D8B200F08FF92349888900F053
:1043800091F9201200F088F9E0B200F085F939E0E7
:104390001D48808845F21051884220D11A49488929
:1043A00000F080F9181200F077F917494989491C83
:1043B00088B200F077F9D8B200F06EF91249888916
:1043C00000F070F9201200F067F90F498989491C43
:1043D00088B200F067F9E0B200F05EF912E00A4836
:1043E0008079012804D108480088401EC01A83B291
:1043F00005494889194600F065F90349888921462D
:1044000000F060F910BD0000000100202DE9F84F18
:1044100005460F4690461E4600975148B0F800905A
:10442000A8F1200000F0FF080A9800284ED10024CF
:1044300049E00C2E07D108EB48004A4901EB800007
:1044400010F804A004E0484800EB081010F804A09D
:104450004FF0000B31E00AF0800018B14048A0F89E
:10446000009003E0414800883D49088039462846CD
:10447000FCF728FA4FEA4A604FEA106A781C87B2C4
:104480003B480088A84204DC3548A0F80090BDE80D
:10449000F88F0098381AB0420BD1009F681C85B283
:1044A00033480088A84203DC2D48A0F80090EEE7CE
:1044B00006E00BF1010000F0FF0BBBF1080FCADBB7
:1044C00000BF601CC4B2B442B3DB44E0002440E04F
:1044D0000C2E07D108EB4800224901EB800010F8B0
:1044E00004A004E0204800EB081010F804A04FF0EE
:1044F000000B28E00AF0800018B139462846FCF786
:10450000E1F94FEA4A604FEA106A781C87B218480E
:104510004088A84203DC1248A0F80090B7E7009852
:10452000381AB0420BD1009F681C85B21048008831
:10453000A84203DC0A48A0F80090A8E706E00BF1C7
:10454000010000F0FF0BBBF1080FD3DB00BF601CC4
:10455000C4B2B442BCDB0248A0F8009000BF96E7AA
:1045600034000020204F000894530008360000203B
:10457000000100202DE9F84704460D469046994673
:10458000DDE9096704F0FF0A08EB04001FFA80F870
:1045900009EB05001FFA80F916E0444502DB54469A
:1045A000A81985B24D4500DB14E0002000903A7850
:1045B000334629462046FFF729FF304606EBD071E7
:1045C00004EB61018CB27F1C38787E2802DC3878DD
:1045D0002028E2DA00BFBDE8F8872DE9FF4F82B05E
:1045E000064692461F46DDE90F480020019000254F
:1045F0004DE0781B401EC1B20A20FFF7FFFCBAFB5A
:10460000F0F00A21B0FBF1F201FB1209019850BB56
:10461000781EA84227DDB9F1000F22D108F08000F2
:1046200078B108F00100A34604EBDB71491001FBEF
:104630000561009088B2234630220399FFF7E6FE19
:104640000EE008F00100A34604EBDB71491001FB0A
:104650000561009088B2234620220399FFF7D6FE19
:1046600013E00120019008F00100A34604EBDB7188
:10467000491001FB0561009088B209F13001CAB20E
:1046800023460399FFF7C2FE00BF681CC5B2BD42B6
:10469000AFDB06B0BDE8F08F01490880704700002D
:1046A0000008006C0149088070470000FE07006C9C
:1046B000024800890249088070470000000100207C
:1046C000FE07006C024A1080921C118070470000A7
:1046D000FE07006C00BFFEE77047000070B50021C8
:1046E00000230F22C47804B3154C246804F4E0645A
:1046F000C4F5E064210AC1F10403CA40447804FA15
:1047000003F184781440214309010E4C0678A15529
:10471000047804F01F050124AC4005786D11AD004C
:1047200005F1E025C5F8004109E0047804F01F0513
:104730000124AC40044D0678761145F8264070BD42
:104740000CED00E000E400E080E100E002490143FC
:10475000024A1160704700000000FA050CED00E00D
:1047600010B54FF480610248FBF79CFF10BD0000BC
:104770000008014010B54FF480610248FBF794FF38
:1047800010BD00000008014010B54FF40061024860
:10479000FBF788FF10BD00000008014010B54FF482
:1047A00000610248FBF780FF10BD000000080140D7
:1047B0007047000029B1064A52690243044B5A610E
:1047C00004E0034A52698243014B5A61704700007A
:1047D0000010024029B1064A92690243044B9A61D3
:1047E00004E0034A92698243014B9A6170470000DA
:1047F0000010024030B500210022002400232D4D7E
:104800006D6805F00C0121B1042905D0082923D1D8
:1048100005E0294D056022E0274D05601FE0254D8C
:104820006D6805F47012234D6D6805F4803402251F
:1048300005EB92421CB9214D554305600BE01D4D1F
:104840006D6805F400351DB11C4D5543056002E04F
:10485000194D5543056002E0174D056000BF00BFCC
:10486000144D6D6805F0F0010909154D6B5C056884
:10487000DD4045600F4D6D6805F4E061090A104D9B
:104880006B5C4568DD4085600A4D6D6805F46051DC
:10489000C90A0B4D6B5C4568DD40C560054D6D6810
:1048A00005F44041890B074D6B5CC568B5FBF3F51A
:1048B000056130BD0010024000127A0000093D0081
:1048C0001400002024000020704710B500F002F80A
:1048D00010BD00000CB50020019000903348006826
:1048E00040F480303149086000BF3048006800F46F
:1048F000003000900198401C0190009818B9019870
:10490000B0F5A06FF1D12948006800F4003010B173
:104910000120009001E0002000900098012843D180
:104920002348006840F010002149086008460068EC
:1049300020F0030008600846006840F002000860AC
:104940001A48406819494860084640684860084667
:10495000406840F4806048600846406820F47C105D
:1049600048600846406840F4E8104860084600681F
:1049700040F08070086000BF0C48006800F00070D4
:104980000028F9D00948406820F003000749486032
:104990000846406840F00200486000BF0348406895
:1049A00000F00C000828F9D10CBD000000100240F6
:1049B00000200240042808D14FF0E021096941F0AD
:1049C00004014FF0E022116107E04FF0E021096996
:1049D00021F004014FF0E0221161704770470000A0
:1049E00010B51348006840F00100114908600846FE
:1049F0004068104908400E494860084600680E4962
:104A000008400B4908600846006820F480200860D0
:104A10000846406820F4FE0048604FF41F0088609C
:104A2000FFF753FF4FF000600449086010BD00001D
:104A3000001002400000FFF8FFFFF6FE08ED00E066
:104A400010B50121014800F031F810BD000400400C
:104A500010B50121124800F029F81249087800EB3E
:104A6000D0714910A0EB410121B9FFF783FEFFF798
:104A70008BFE03E0FFF774FEFFF790FE0948007815
:104A8000401C0849087008460078642801D10020BD
:104A9000087005480078401C0349087010BD0000EC
:104AA000000800403300002032000020CA43028288
:104AB0007047000010B540F225511D4800F04AF83B
:104AC00010B31B4800F002F9C4B21A48008800F481
:104AD0000040C8B91748008800F4804060B10A2C33
:104AE00003D000201349088020E01248008840F4D9
:104AF00000401049088019E00D2C06D10D480088AF
:104B000040F480400B49088010E00A480088C0F358
:104B10000D0009490C5407480088401C05490880CD
:104B200008460088C72801DD0020088010BD00006D
:104B300000380140300000203800002021B1828977
:104B400042F40052828104E082894DF6FF731A40DC
:104B50008281704770B502460024002300250020A2
:104B600040F66A16B14200D100BFC1F3421501F010
:104B70001F03012606FA03F3012D02D19689334063
:104B800006E0022D02D1168A334001E0968A3340B6
:104B90000C12012606FA04F41688344013B10CB145
:104BA000012000E0002070BDF0B50346002400267F
:104BB0000025002040F66A17B94200D100BF184610
:104BC000C1F3421401F01F06012707FA06F5012C74
:104BD00001D10C3004E0022C01D1103000E014307F
:104BE0001AB107682F43076002E00768AF43076008
:104BF000F0BD00002DE9F04786B005460E460024C2
:104C0000A24600BFA1460027B08900B100BF2F46D1
:104C10002C8A4CF6FF700440F08804432C82AC8947
:104C20004EF6F3100440B088318908437189084377
:104C30000443AC81AC8A4FF6FF400440B089044382
:104C4000AC8201A8FFF7D6FD1F48874202D1DDF8EC
:104C500010A001E0DDF80CA0A88900F4004040B1EC
:104C60000AEBCA0000EB0A1031684900B0FBF1F80A
:104C700007E00AEBCA0000EB0A1031688900B0FBBC
:104C8000F1F86420B8FBF0F004012009642101FB75
:104C90001089A88900F4004040B1322000EBC9001F
:104CA000B0FBF1F000F00700044308E0322000EB15
:104CB00009106421B0FBF1F000F00F0004432C81D7
:104CC00006B0BDE8F0870000003801400146888842
:104CD000C0F30800704700BFFEE7014600BF704701
:104CE00010B56FF00400FFF765FE0A4800680A4936
:104CF000B0FBF1F0094908700846007800EB40016C
:104D0000C1EBC0104FF6FF7101EAC00004490880F2
:104D100010BD00000000002000127A0028000020D2
:104D20002A0000200146114A12884A434FF0E0232E
:104D30005A6100229A611A46126942F001021A6110
:104D400000BF4FF0E022106900F001021AB100F438
:104D50008032002AF5D04FF0E022126922F00102E1
:104D60004FF0E0231A6100229A6170472A00002068
:104D70000146114A12784A434FF0E0235A6100225B
:104D80009A611A46126942F001021A6100BF4FF09F
:104D9000E022106900F001021AB100F48032002A0A
:104DA000F5D04FF0E022126922F001024FF0E0232B
:104DB0001A6100229A6170472800002000BF054A4E
:104DC000128802F04002002AF9D0C2B2014B1B1D2A
:104DD0001A8070470038014086B0FFF781FF4FF41A
:104DE000A060FFF7B3FC4FF4165000F049F8FBF752
:104DF0007BFD4FF478401A49088030E04FF478404A
:104E00001749088017A010210B46C822CDE90010D1
:104E100032211E20FFF7AEFB16A010210B46C82240
:104E2000CDE9001046211E20FFF7A4FB0120102130
:104E3000042340F2CE72CDE900105A213C20FFF746
:104E4000CCFB03A810210B46C822CDE900106E212F
:104E50001E20FFF78FFB4FF47A70FFF763FFCDE75B
:104E6000340000205341205441204C4955205849DA
:104E70004E47000064697374616E63650000000052
:104E800010B586B00446012144F20400FFF7A2FCED
:104E90004FF40070ADF8140003208DF816001820B0
:104EA0008DF8170005A91C48FBF771FB4FF48060D3
:104EB000ADF8140004208DF8170005A91648FBF77B
:104EC00066FB25208DF8000003208DF801008DF889
:104ED000020001208DF803006846FFF7FFFB0194F4
:104EE0000020ADF80800ADF80A00ADF80C00ADF8F0
:104EF00010000C20ADF80E0001A90848FFF77AFE5B
:104F0000012240F225510548FFF74EFE01210348DA
:104F1000FFF714FE06B010BD000801400038014044
:104F20000000000000000000000000000000000081
:104F30003F40000000000000000030004000300052
:104F40004000000009000BC03D000BC03D000900FF
:104F500018C024407FE0224031800000180024C0A7
:104F60001B000D803240018003801C4027401C80C4
:104F7000074000401000600000000000000000003A
:104F80000000000000001F80204040200000402062
:104F900020401F8000000000090006001F8006005E
:104FA00009000000040004003F8004000400000029
:104FB0000010006000000000000000000400040079
:104FC0000400040004000000000000400000000095
:104FD00000000000002001C0060038004000000072
:104FE0001F802040204020401F8000000000104013
:104FF0003FC000400000000018C021402240244073
:105000001840000010802040244024401B800000F5
:1050100002000D0011003FC0014000003C80244010
:1050200024402440238000001F802440244034403A
:10503000038000003000200027C03800200000005E
:105040001B802440244024401B8000001C0022C000
:10505000224022401F8000000000000008400000A5
:1050600000000000000000000460000000000000DC
:10507000000004000A0011002080404009000900DF
:1050800009000900090000000000404020801100D4
:105090000A0004001800200023402400180000002B
:1050A0001F802040274029401F400000004007C0CB
:1050B00039000F0001C0004020403FC02440244080
:1050C0001B8000001F8020402040204030800000D6
:1050D00020403FC0204020401F80000020403FC0B3
:1050E00024402E4030C0000020403FC024402E000D
:1050F000300000000F00108020402240338002006A
:1051000020403FC0040004003FC020402040204019
:105110003FC02040204000000060202020203FC0F1
:105120002000200020403FC024400B0030C0204021
:1051300020403FC020400040004000C03FC03C0035
:1051400003C03C003FC0000020403FC00C40230093
:105150003FC020001F802040204020401F800000D2
:1051600020403FC024402400180000001F80214040
:10517000214020E01FA0000020403FC02440260026
:1051800019C0004018C02440244022403180000053
:10519000300020403FC020403000000020003F8011
:1051A000004000403F80200020003E0001C007007A
:1051B00038002000380007C03C0007C0380000005D
:1051C000204039C0060039C020400000200038408F
:1051D00007C0384020000000304021C02640384041
:1051E00020C00000000000007FE0402040200000C0
:1051F000000070000C000380004000000000402010
:1052000040207FE00000000000002000400020005F
:10521000000000000010001000100010001000102E
:1052200000000000400000000000000000000280BC
:105230000540054003C0004020003FC0044004403A
:10524000038000000000038004400440064000008A
:1052500000000380044024403FC000400000038061
:105260000540054003400000000004401FC02440EA
:1052700024402000000002E00550055006500420A4
:1052800020403FC00440040003C000400000044030
:1052900027C000400000000000100010041027E0AC
:1052A0000000000020403FC00140070004C004404F
:1052B000204020403FC000400040000007C00400E4
:1052C00007C0040003C00000044007C004400400FD
:1052D00003C000400000038004400440038000003D
:1052E000041007F004500440038000000000038015
:1052F0000440045007F00010044007C002400400BE
:1053000004000000000006400540054004C0000005
:10531000000004001F8004400040000004000780DB
:105320000040044007C000400400070004C00180A2
:1053300006000400060001C0070001C006000000CE
:10534000044006C0010006C004400000041007101D
:1053500004E00180060004000000044005C006408F
:10536000044000000000000004007BE0402000003A
:10537000000000000000FFF00000000000004020DE
:105380007BE004000000000040008000400020009E
:1053900020004000000000000000000000000000AD
:1053A000000000000000000000001FCC000C000006
:1053B000000000000000080030006000080030001D
:1053C00060000000022003FC1E20022003FC1E20BF
:1053D0000220000000000E1811043FFF10840C781A
:1053E000000000000F0010840F3800C007781884F8
:1053F0000078000000780F8410C411240E9800E497
:105400000084000808006800700000000000000030
:105410000000000000000000000007E01818200451
:1054200040020000000040022004181807E00000BD
:10543000000000000240024001800FF001800240A5
:10544000024000000080008000800FF80080008093
:10545000008000000001000D000E000000000000B0
:1054600000000000000000800080008000800080BC
:10547000008000800000000C000C00000000000014
:105480000000000000000006001800600180060017
:1054900018002000000007F0080810041004080895
:1054A00007F000000000080408041FFC00040004CA
:1054B0000000000000000E0C101410241044118491
:1054C0000E0C000000000C181004110411041288C6
:1054D0000C700000000000E00320042408241FFCDE
:1054E0000024000000001F9810841104110410888B
:1054F00010700000000007F00888110411041888DB
:105500000070000000001C00100010FC13001C00C4
:105510001000000000000E38114410841084114463
:105520000E38000000000700088C10441044088862
:1055300007F00000000000000000030C030C000056
:105540000000000000000000000101060000000053
:105550000000000000000080014002200410080844
:10556000100400000220022002200220022002205B
:10557000022000000000100408080410022001406E
:105580000080000000000E001200100C106C108053
:105590000F00000003E00C1813E4142417C40828BB
:1055A00007D000000004003C03C41C40074000E496
:1055B000001C000410041FFC1104110411040E88C7
:1055C0000070000003E00C18100410041004100810
:1055D0001C10000010041FFC100410041004080824
:1055E00007F0000010041FFC1104110417C410047C
:1055F0000818000010041FFC1104110017C010004F
:105600000800000003E00C181004100410441C787B
:105610000040000010041FFC1084008000801084F3
:105620001FFC10040000100410041FFC10041004E0
:105630000000000000030001100110011FFE100017
:105640001000000010041FFC110403801464181CD7
:105650001004000010041FFC1004000400040004E7
:10566000000C000010041FFC1F0000FC1F001FFCAA
:105670001004000010041FFC0C04030000E01018CC
:105680001FFC100007F0080810041004100408089C
:1056900007F0000010041FFC1084108010801080A0
:1056A0000F00000007F0081810241024101C080A2E
:1056B00007F2000010041FFC1104110011C011308A
:1056C0000E0C000400000E1C110410841084104401
:1056D0001C3800001800100010041FFC10041000FB
:1056E0001800000010001FF810040004000410044B
:1056F0001FF8100010001E0011E0001C0070138045
:105700001C0010001FC0103C00E01F0000E0103C17
:105710001FC000001004180C163401C001C016345C
:10572000180C100410001C00130400FC13041C00CF
:10573000100000000804101C1064108413041C04E2
:10574000101800000000000000007FFE4002400230
:1057500040020000000030000C0003800060001CCC
:105760000003000000004002400240027FFE0000F3
:105770000000000000000000200040004000400049
:1057800020000000000100010001000100010001F3
:105790000001000100004000400020000000000067
:1057A000000000000000009801240144014401446D
:1057B00000FC000410001FFC0088010401040088A4
:1057C0000070000000000070008801040104010462
:1057D0000088000000000070008801040104110826
:1057E0001FFC0004000000F801440144014401448E
:1057F00000C800000000010401040FFC11041104A2
:1058000011001800000000D601290129012901C951
:105810000106000010041FFC0084010001000104C7
:1058200000FC000400000104190419FC0004000439
:10583000000000000000000300010101190119FE31
:105840000000000010041FFC0024004001B4010C03
:10585000010400000000100410041FFC00040004F8
:1058600000000000010401FC0104010001FC01042E
:10587000010000FC010401FC00840100010001049E
:1058800000FC0004000000F801040104010401040C
:1058900000F80000010101FF0085010401040088F7
:1058A0000070000000000070008801040104010580
:1058B00001FF00010104010401FC00840104010056
:1058C00001800000000000CC0124012401240124F7
:1058D0000198000000000100010007F80104010424
:1058E00000000000010001F80004000400040108A9
:1058F00001FC0004010001800170000C0010016037
:105900000180010001F0010C003001C00030010CE9
:1059100001F0010000000104018C00740170018C91
:1059200001040000010101810171000E00180160F5
:105930000180010000000184010C01340144018454
:10594000010C0000000000000000000001003EFC0F
:10595000400240020000000000000000FFFF0000C5
:10596000000000000000400240023EFC0100000078
:105970000000000000006000800080004000400047
:105980002000200030313233343536373839414247
:105990004344454640305800303132333435363791
:1059A000383961626364656640307800CC5900081C
:1059B00000000020380000006C010008045A0008B4
:1059C00038000020380700008801000800A24A04BF
:1059D000000000000000000001020304060708099F
:1059E0000000000001020304010203040607080985
:1059F0000204060800000000000000000000000093
:045A00000000FFFFA4
:04000005080001D519
:00000001FF
