:020000040800F2
:1000000050070020CD0100082D05000897040008C6
:10001000290500087D020008A30800080000000070
:10002000000000000000000000000000D1050008F2
:100030008102000800000000AD050008E506000888
:10004000E7010008E7010008E7010008E7010008F0
:10005000E7010008E7010008E7010008E7010008E0
:10006000E7010008E701000885020008E701000831
:10007000E7010008E7010008E7010008E7010008C0
:10008000E7010008E7010008E7010008E7010008B0
:10009000E7010008E7010008E7010008E7010008A0
:1000A000E7010008E7010008E7010008E701000890
:1000B000E70100084907000859070008E7010008A0
:1000C000E7010008E7010008E7010008E701000870
:1000D000E7010008BD070008E7010008E701000884
:1000E000E7010008E7010008E7010008E701000850
:1000F000E7010008E7010008E7010008E701000840
:10010000E7010008E7010008E7010008E70100082F
:10011000E7010008E7010008E7010008E70100081F
:10012000E7010008E7010008E7010008E70100080F
:1001300000F002F800F03AF80AA090E8000C8244BF
:100140008344AAF10107DA4501D100F02FF8AFF29C
:10015000090EBAE80F0013F0010F18BFFB1A43F0A5
:1001600001031847E407000004080000103A24BF08
:1001700078C878C1FAD8520724BF30C830C144BF0C
:1001800004680C607047000000230024002500264E
:10019000103A28BF78C1FBD8520728BF30C148BFEA
:1001A0000B6070471FB51FBD10B510BD00F033F8D0
:1001B0001146FFF7F7FF00F0C1FB00F051F803B460
:1001C000FFF7F2FF03BC00F06EFB00000948804718
:1001D00009480047FEE7FEE7FEE7FEE7FEE7FEE729
:1001E000FEE7FEE7FEE7FEE704480549054A064B41
:1001F00070470000E90600083101000850010020A6
:100200005007002050030020500300207047704723
:10021000704770477047754600F02CF8AE460500F1
:100220006946534620F00700854618B020B5FFF711
:10023000DBFFBDE820404FF000064FF000074FF015
:1002400000084FF0000B21F00701AC46ACE8C009F4
:10025000ACE8C009ACE8C009ACE8C0098D467047FD
:1002600010B50446AFF300802046BDE81040FFF70C
:10027000A6BF000000487047F000002000BFFEE766
:100280007047000010B5102000F01EF80A480078F2
:1002900008B9012000E00020074908701021074834
:1002A00000F0ECF830B906480088064908800020C4
:1002B0000349088010BD0000200000200008014014
:1002C000220000202400002001490860704700003F
:1002D000140401402DE9F0410246002500260020CB
:1002E00000230024002791F803C00CF00F0591F8BB
:1002F00003C00CF0100CBCF1000F03D091F802C049
:100300004CEA050591F800C0BCF1000F31D014682B
:1003100000202BE04FF0010C0CFA00F3B1F800C004
:100320000CEA03069E4220D183004FF00F0C0CFA1A
:1003300003F7BC4305FA03FC4CEA040491F803C03C
:10034000BCF1280F06D14FF0010C0CFA00FCC2F8EA
:1003500014C00AE091F803C0BCF1480F05D14FF07A
:10036000010C0CFA00FCC2F810C0401C0828D1D3C4
:100370001460B1F800C0BCF1FF0F34DD54680020F8
:100380002EE000F1080C4FF0010808FA0CF3B1F868
:1003900000C00CEA03069E4221D183004FF00F0CEF
:1003A0000CFA03F7BC4305FA03FC4CEA040491F889
:1003B00003C0BCF1280F05D100F1080C08FA0CF8B5
:1003C000C2F8148091F803C0BCF1480F07D100F1C6
:1003D000080C4FF0010808FA0CF8C2F81080401C15
:1003E0000828CED35460BDE8F0810000F0B50A467D
:1003F000002300240021002500F00046B6F1004F44
:1004000002D11D4EF16901E01B4E7168C0F3034536
:1004100083B200F44016B6F5401F08D121F0706198
:10042000154E766826F07066134F7E6012E000F479
:100430008016B6F5801F06D1032606FA05F4A143FF
:1004400041F0706106E0460D360103FA06F6B1434D
:1004500041F0706122B1460D360103FA06F63143D0
:1004600000F00046B6F1004F02D1034EF16101E009
:10047000014E7160F0BD0000000001400246002006
:1004800093680B400BB1012000E0002070474161F0
:1004900070470161704700BFFEE7000010B52021E2
:1004A0000148FFF7F6FF10BD0018014010B52021EC
:1004B0000148FFF7ECFF10BD0018014010B52021E6
:1004C0000148FFF7E6FF10BD000C014010B52021E8
:1004D0000148FFF7DCFF10BD000C014008B5012109
:1004E000082000F065F80121402000F061F820208C
:1004F000ADF8000010208DF8030003208DF80200F5
:1005000069460648FFF7E6FE69460548FFF7E2FE42
:1005100001210448FFF76AFF08BD0000000C0140FC
:10052000001801400002300000BFFEE770470000E5
:1005300010B54FF480610248FFF7A9FF10BD00001D
:100540000008014010B54FF480610248FFF7A1FF99
:1005500010BD00000008014010B54FF400610248D2
:10056000FFF795FF10BD00000008014010B54FF4E3
:1005700000610248FFF78DFF10BD00000008014038
:1005800000F094F9FFF7AAFF0FE0FFF79FFFFFF7D6
:1005900085FF4FF4FA7000F0ABF9FFF78FFFFFF71C
:1005A00085FF4FF4FA7000F0A3F9EEE77047000002
:1005B00029B1064A92690243044B9A6104E0034A56
:1005C00092698243014B9A6170470000001002401B
:1005D000704710B500F002F810BD00000CB5002007
:1005E000019000903348006840F480303149086041
:1005F00000BF3048006800F4003000900198401CB3
:100600000190009818B90198B0F5A06FF1D1294870
:10061000006800F4003010B10120009001E00020DB
:1006200000900098012843D12348006840F0100052
:10063000214908600846006820F003000860084669
:10064000006840F0020008601A4840681949486094
:100650000846406848600846406840F4806048604A
:100660000846406820F47C1048600846406840F422
:10067000E81048600846006840F08070086000BFDD
:100680000C48006800F000700028F9D00948406864
:1006900020F00300074948600846406840F0020027
:1006A000486000BF0348406800F00C000828F9D1FA
:1006B0000CBD00000010024000200240042808D1B8
:1006C0004FF0E021096941F004014FF0E02211618F
:1006D00007E04FF0E021096921F004014FF0E0222A
:1006E000116170477047000010B51348006840F072
:1006F00001001149086008464068104908400E4949
:100700004860084600680E4908400B4908600846E2
:10071000006820F4802008600846406820F4FE004D
:1007200048604FF41F008860FFF753FF4FF00060F0
:100730000449086010BD0000001002400000FFF8EE
:10074000FFFFF6FE08ED00E010B50121014800F0C2
:1007500031F810BD0004004010B50121124800F02E
:1007600029F81249087800EBD0714910A0EB41013B
:1007700021B9FFF7E7FEFFF7EFFE03E0FFF7D8FE32
:10078000FFF7F4FE09480078401C08490870084645
:100790000078642801D10020087005480078401CCA
:1007A0000349087010BD0000000800401F00002031
:1007B0001E000020CA4302827047000010B540F2BC
:1007C00025511D4800F03EF810B31B4800F064F8B6
:1007D000C4B21A48008800F40040C8B9174800881D
:1007E00000F4804060B10A2C03D000201349088037
:1007F00020E01248008840F400401049088019E0C9
:100800000D2C06D10D48008840F480400B4908802B
:1008100010E00A480088C0F30D0009490C5407484D
:100820000088401C0549088008460088C72801DD6B
:100830000020088010BD0000003801401C0000208E
:100840002800002070B50246002400230025002067
:1008500040F66A16B14200D100BFC1F3421501F063
:100860001F03012606FA03F3012D02D196893340B6
:1008700006E0022D02D1168A334001E0968A334009
:100880000C12012606FA04F41688344013B10CB198
:10089000012000E0002070BD01468888C0F30800F8
:1008A000704700BFFEE7014600BF704710B56FF00C
:1008B0000400FFF703FF0A4800680A49B0FBF1F0A3
:1008C000094908700846007800EB4001C1EBC010F0
:1008D0004FF6FF7101EAC0000449088010BD000016
:1008E0000000002000127A001400002016000020F2
:1008F0000146114A12884A434FF0E0235A61002210
:100900009A611A46126942F001021A6100BF4FF063
:10091000E022106900F001021AB100F48032002ACE
:10092000F5D04FF0E022126922F001024FF0E023EF
:100930001A6100229A6170471600002010B5FFF777
:100940001FFE002010BD0000680900080000002004
:10095000280000006C010008900900082800002011
:10096000280700008801000800A24A0400000000D7
:10097000000000000102030406070809000000004F
:100980000000000000000000000000000000000067
:04000005080001CD21
:00000001FF
